:1000000000200020F90000007D0700007D070000AF
:100010007D0700007D0700007D0700004907000004
:100020004907000049070000490700007D0700005C
:100030007D070000490700007D0700003907000028
:100040007D0700007D0700007D0700007D070000A0
:100050007D0700007D0700007D0700007D07000090
:100060007D0700007D0700007D0700007D07000080
:100070007D0700007D0700007D0700007D07000070
:10008000591400007D070000E11700007D07000003
:10009000CD1A00007D0700007D0700007D070000ED
:1000A0007D0700007D0700007D0700007D07000040
:1000B0007D0700007D070000A12C0000B92C000086
:1000C000D12C0000E92C00007D070000951D0000E8
:1000D0007D0700007D0700007D0700007D07000010
:1000E00071090000C1090000490A0000050B000069
:1000F000890B000089290000524B4CF2205210B5A8
:100100001A804DF628121A8000BF00BF00F039FB9C
:100110004D4B4E4A1A604E4A5A604E4B1A6812F4C2
:10012000807204D14C490A604FF4A8521A604B4BBC
:100130001A7802F00802D2B21AB11A7842F0080214
:100140001A70474B4748484C2A221A700023474AE6
:1001500002E019599950043399188142F9D3444B5C
:10016000444A002101E043F8041B9342FBD3424977
:10017000424800231A585A500433F82BFAD1404B06
:10018000404A802103F8011B9342FBD13A4A3E4B7F
:100190001A603E4B0A221A703D4B24221A70A0228C
:1001A00003F8012C3B4A137803F00203DBB2002B67
:1001B000F9D0384A137803F01003DBB2002BF9D1E1
:1001C000344A137803F00C03082BFAD1324B032284
:1001D0001A7040225A702F4A137803F02003DBB2C2
:1001E000002BF9D02B4A137803F04003DBB2002B2D
:1001F000F9D02A4B2A4A1A6002225A60294B20223F
:100200001A70244A137803F00C030C2BFAD1264AF7
:10021000264B1A60264B4BF67F321A60072243F8B2
:10022000042C62B600F0F5FE0B4B1B68DC0702D510
:10023000204800F0C7FC03F031FB00F0A9FA02F0FF
:1002400063FEFEE70E20054038800440823F040034
:100250000100002B10D0034014D0034002D007400F
:1002600000E0074090EBFF1FB495000060E5FF1F22
:1002700090EBFF1F84EFFF1F00E1FF1F0000000055
:1002800000E400E02EE400E008ED00E0005006404D
:1002900001400640064006400440064044800440B9
:1002A0000000031100400640C01005000480044017
:1002B00014E000E000DD6850FFFFFFFFFFFFFFFFDD
:1002C000FFFFFFFFFFFFFFFFFFFFFFFFFFFFFFFF3E
:1002D000FFFFFFFFFFFFFFFFFFFFFFFFFFFFFFFF2E
:1002E000FFFFFFFFFFFFFFFFFFFFFFFFFFFFFFFF1E
:1002F000FFFFFFFFFFFFFFFFFFFFFFFFFFFFFFFF0E
:10030000FFFFFFFFFFFFFFFFFFFFFFFFFFFFFFFFFD
:10031000FFFFFFFFFFFFFFFFFFFFFFFFFFFFFFFFED
:10032000FFFFFFFFFFFFFFFFFFFFFFFFFFFFFFFFDD
:10033000FFFFFFFFFFFFFFFFFFFFFFFFFFFFFFFFCD
:10034000FFFFFFFFFFFFFFFFFFFFFFFFFFFFFFFFBD
:10035000FFFFFFFFFFFFFFFFFFFFFFFFFFFFFFFFAD
:10036000FFFFFFFFFFFFFFFFFFFFFFFFFFFFFFFF9D
:10037000FFFFFFFFFFFFFFFFFFFFFFFFFFFFFFFF8D
:10038000FFFFFFFFFFFFFFFFFFFFFFFFFFFFFFFF7D
:10039000FFFFFFFFFFFFFFFFFFFFFFFFFFFFFFFF6D
:1003A000FFFFFFFFFFFFFFFFFFFFFFFFFFFFFFFF5D
:1003B000FFFFFFFFFFFFFFFFFFFFFFFFFFFFFFFF4D
:1003C000FFFFFFFFFFFFFFFFFFFFFFFFFFFFFFFF3D
:1003D000FFFFFFFFFFFFFFFFFFFFFFFFFFFFFFFF2D
:1003E000FFFFFFFFFFFFFFFFFFFFFFFFFFFFFFFF1D
:1003F000FFFFFFFFFFFFFFFFFFFFFFFFFFFFFFFF0D
:10040000FFFFFFFFFFFFFFFFFFFFFFFFFEFFFFFFFD
:1004100008B54EF69030074BC1F6FF701B1A062B3D
:1004200000D808BD40F20003C0F20003002BF8D052
:100430009847F6E793EBFF1F08B54EF690304EF65F
:100440009033C1F6FF70C1F6FF731B1A9B1003EBCC
:10045000D373591000D108BD40F20002C0F200026F
:10046000002AF8D09047F6E710B54EF69034C1F662
:10047000FF74237873B9FFF7CBFF40F20003C0F29B
:1004800000032BB149F2B450C0F20000AFF300807A
:100490000123237010BD00BF08B540F20003C0F275
:1004A00000034BB149F2B4504EF69431C0F2000053
:1004B000C1F6FF71AFF300804EF69030C1F6FF70C9
:1004C00003682BB140F20003C0F2000303B1984768
:1004D000BDE80840FFF7B0BFF0B518490B6813F04E
:1004E0008002FBD172B6164B197829B315490868FA
:1004F0004F688E68CD680C69381814318019096806
:10050000401900194018C0F34E000F4940F4004054
:100510000860C86A0F6B4E6B8D6BCC6B381840311E
:1005200080190968401900194018C0F34E000749A6
:1005300040F4004008601A7062B6F0BD24B0034079
:10054000ACEBFF1F38B003402CB0034030B0034089
:100550001C4B60221A70E1225A701B4B1B4A1978FF
:100560001B4B082901D1012102E00A2903D13921BD
:100570001160132206E00C2901D1352100E03D2154
:10058000116012221A60134B5A78134B02B10122E8
:100590001A600D4B5A78114B012A01D880220CE0C9
:1005A000042A01D8842208E0082A01D8852204E020
:1005B000102A01D8862200E087221A60054B01220A
:1005C0001A7070470040074064E5FF1F08B0034001
:1005D0000CB00340ACEBFF1F20B0034024B003403D
:1005E0000A4B5A7840B17AB9012159701B780BB186
:1005F000074B1A60FFF7ACBF32B158701B78002B65
:10060000F8D0034B1860F5E7704700BFACEBFF1F55
:1006100024B003400C2810B503D91023102807D8A4
:1006200009E00A2806D8082894BF08230A2302E014
:10063000184600E00C23DCB2084A0949201A9070E1
:100640000878834209D013780C7013B1054B00224F
:100650001A60BDE81040FFF77BBF10BDACEBFF1F79
:1006600064E5FF1F24B0034010B5114B1B7804460E
:100670000BB1FFF731FF012C0E4A01D8002302E035
:10068000042C02D8042313600EE0082C03D80523A1
:100690001360082308E0102C03D8062313601023EE
:1006A00002E0072313602023034A537010BD00BFEC
:1006B000ACEBFF1F24B0034064E5FF1F0D28F8B525
:1006C00009D9172801D80E3804E0A0F12203062B1F
:1006D00025D81838C0B2134B1E5C134B1B780BB1D6
:1006E000FFF7FAFE72B6114C0F4D01272660EF702E
:1006F00062B672B6236813F0800F0B4B08D00C4A19
:1007000010680022DA7062B69B7840FA03F0F8BDF8
:10071000EB78002BEAD062B602F0D6FBE9E70020C6
:10072000F8BD00BFC0900000ACEBFF1F00B003405D
:1007300010B00340704700BF024B1A6801321A60C4
:10074000704700BF38ECFF1F38B50B4C25462368B7
:10075000580301D501F01EFB2B68590501D500F0A7
:100760007BFE2B681A0501D501F03AF82368DB04FB
:10077000EDD501F0ABF9EAE73480044008B5FFF7A6
:10078000E3FF024B10221A80704700BF0020054093
:100790007047034A1368181810601846704700BF66
:1007A00068E5FF1F002070474FF0FF3070474FF49F
:1007B00000534B6000207047012070474FF0FF301E
:1007C0007047FEE7FEE70078D0F1010038BF002057
:1007D0007047012303707047EFF313839BB9EFF366
:1007E000108098B9EFF3058323B10F2B04D9084A81
:1007F000985C01E04FF48070EFF311833BB19842B5
:1008000028BF184670474FF0FF30704718467047B2
:10081000F0E300E0002300E00133C25C002AFBD1DA
:100820001846704710B50023B0FBF2F402FB140029
:10083000092801D8303000E03730C85420460CB1C8
:100840000133F1E7CA185470224605E0885CCC5C9D
:100850008C54C8540132013B9A42F7DB084610BD64
:10086000031E10B50C4603DBBDE81040FFF7DABFEE
:100870002D2001F8010B5842FFF7D4FF204610BD90
:10088000F0B50F4687B016461C463A463346054635
:10089000074901A803F04AFE284602F0D9FC0246A7
:1008A0000B46204601A903F041FE204607B0F0BDEB
:1008B000D1900000084B4FF480721A604FF4007220
:1008C0001A604FF480621A604FF400621A604FF4AD
:1008D00080521A60704700BF04E100E01030024B04
:1008E00043F82010704700BF00E1FF1F212830B5FA
:1008F00021D8042A1FD8DFE802F00709050B0300FE
:100900000B2306E00A2304E0082302E00C2300E0A6
:100910000923094A02EBC002526872B61468074DF7
:1009200024F47024146044F0807444EA034345F8CE
:100930002010136062B630BDDC900000B0EBFF1FEA
:10094000094B03EBC0035B6872B61A6822F087722A
:1009500022F4803242F080721A60044B002243F885
:10096000202062B6704700BFDC900000B0EBFF1F94
:10097000114B10B51C68E0041C6004D50F4BDA68FD
:100980000AB1DB689847A10404D50C4B1A690AB177
:100990001B699847A20604D5084B1A6E0AB11B6E54
:1009A0009847E30606D5054BD3F8842012B1D3F857
:1009B0008430984710BD00BFA0900440B0EBFF1FEB
:1009C0001F4B10B51C68E0031C6004D51D4B1A6852
:1009D0000AB11B689847A10304D51A4B5A680AB19B
:1009E0005B689847E20704D5164B1A6C0AB11B6C7A
:1009F0009847A30704D5134B5A6C0AB15B6C984710
:100A0000200704D50F4B9A6C0AB19B6C984761077D
:100A100004D50C4BDA6C0AB1DB6C9847220304D581
:100A2000084B5A6E0AB15B6E9847630306D5054BB7
:100A3000D3F8802012B1D3F88030984710BD00BFA2
:100A4000A0A00440B0EBFF1F2C4B10B51C68200782
:100A50001C6004D52A4B5A6A0AB15B6A9847E106C2
:100A600004D5274B9A6A0AB19B6A9847620604D557
:100A7000234BDA6A0AB1DB6A9847230604D5204B78
:100A80001A6B0AB11B6B9847A00604D51C4B5A6B16
:100A90000AB15B6B9847E10704D5194BDA6B0AB1D1
:100AA000DB6B9847A20704D5154B9A6D0AB19B6D75
:100AB0009847630704D5124BDA6D0AB1DB6D98478E
:100AC000A00504D50E4BDA6E0AB1DB6E9847E1053E
:100AD00004D50B4B1A6F0AB11B6F9847620504D5FA
:100AE000074B5A6F0AB15B6F9847230504D5044B37
:100AF0009A6F0AB19B6F984710BD00BFA0B0044029
:100B0000B0EBFF1F1E4B10B51C68E0071C6004D53E
:100B10001C4B9A680AB19B689847210604D5194B6B
:100B20005A690AB15B699847E20604D5154B9A6980
:100B30000AB19B699847630704D5124BDA690AB179
:100B4000DB699847200704D50E4B1A6A0AB11B6A65
:100B50009847A10704D50B4B9A6B0AB19B6B98473A
:100B6000A20604D5074B1A6D0AB11B6D98476306A0
:100B700004D5044B5A6D0AB15B6D984710BD00BF98
:100B8000A0C00440B0EBFF1F094B10B51C68A207C2
:100B90001C6004D5074B9A6E0AB19B6E9847E30719
:100BA00004D5044BDA6F0AB1DB6F984710BD00BF64
:100BB000A0D00440B0EBFF1F014B1868704700BF86
:100BC00000D00340044B054900221A600A60044A21
:100BD000106010221A60704714D0034004D0034004
:100BE00000D00340002810B50FDB02024FF48073E1
:100BF00047F6FF7400E00A46A24204D9013B012BEC
:100C0000C0EB0201F7D1120A11E0404202024FF498
:100C1000807348F2FF0400E00A46A24204D9013B77
:100C2000012BC0EB0201F7D1120AC2F58072013B21
:100C3000024942EA03220A6010BD00BF0CD0034003
:100C400018B1102828BF102000E00120014B1870B7
:100C5000704700BF6CE5FF1F10B500234FF43772DB
:100C600042FA03F4A14202D80133072BF8D1164A05
:100C700042FA03F202EB5102B2FBF1F101394FF6F5
:100C8000FF72914228BF1146C21E012A06D80F4AA0
:100C90000F4C0020106020600E480FE0421F012A18
:100CA00006D9092804D00A2802D01438032809D804
:100CB000094A0A4C002010602060094843F00803EC
:100CC0000160136010BD00BF006CDC0200900340A7
:100CD00004900340089003400080034004800340D8
:100CE00008800340212810B518D80D4A52F830303A
:100CF00093F880423CB1012211B183F8802010BDED
:100D000083F8002110BD02EBC00043681A6811B1DE
:100D100042F0030201E022F002021A6010BD00BF9F
:100D2000DC900000212805D8034B53F8303093F8AD
:100D30000002704700207047DC900000212816D880
:100D40000B4A02EBC00301295B6852F8302004D142
:100D500082F880124FF4A27208E0002082F880022C
:100D600011B94FF4807201E040F203121A6070472B
:100D7000DC90000038B53B4B1A7801250029044669
:100D800005FA02F301DC002102E0994205D329466D
:100D9000FFF7A8FF204629465FE00338C3B2012BC6
:100DA00094BF314B314B1B6801334B4323FA02F3A1
:100DB000142849D8DFE800F00B11171D48482329F3
:100DC0004848484848484848482F353B4100284A49
:100DD00013604FF45172274B34E0274A13604FF4ED
:100DE0005172264B2EE0264A136040F24442254BB6
:100DF00028E0254A136040F24442244B22E0244A72
:100E0000136040F24442234B1CE0234A136040F23B
:100E10004442224B16E0224A136040F24442214BE6
:100E200010E0214A136040F24442204B0AE0204A7D
:100E3000136040F244421F4B04E01F4A13601F4BF3
:100E400040F244421A6038BD7F292046D4BF0021B9
:100E50000121FFF747FF20460121BDE83840FFF799
:100E60006DBF00BF6CE5FF1F089003400880034082
:100E70001090034030900440189003403490044098
:100E8000488003401CC004403080034010C0044030
:100E9000208003400CB004402880034010B0044080
:100EA0003880034014C004404080034018C0044010
:100EB0001080034004B004401880034008B0044090
:100EC0002DE9F04107460E4690460824012505EA23
:100ED00008013846FFF706FF01213046FFF702FF01
:100EE000002130466D00FFF7FDFE013CEDB2EED172
:100EF000BDE8F0812DE9F04107460E4690460824F2
:100F0000802505EA08013846FFF7ECFE012130464E
:100F1000FFF7E8FE00213046FFF7E4FE6D08013CD4
:100F2000EFD1BDE8F08112B91A46FFF7C9BF1A46E2
:100F3000FFF7E0BF2DE9F04180460F460824002569
:100F4000012638460121FFF7CDFE4046FFF7EAFEB5
:100F500000B13543002138467600FFF7C3FE013C5F
:100F6000F6B2EED12846BDE8F0812DE9F041804689
:100F70000F4608240025802638460121FFF7B2FEDF
:100F80004046FFF7CFFE00B1354300213846FFF75A
:100F9000A9FE7608013CEFD12846BDE8F0810AB9E8
:100FA000FFF7C8BFFFF7E1BF72B60C4B0C491A68D8
:100FB0000C4BD3F88830096862B6490102D5322A51
:100FC00088BF0133C2F53B427F323021B2FBF1F2E0
:100FD0004FF47A7000FB0320704700BF18E000E078
:100FE00004ED00E0B0EBFF1F70B50446FFF7DCFF37
:100FF00005466CB140F2E736FFF7D6FF401BB04222
:1010000003D9013C04D005F57A7501F05DFFF3E7E3
:1010100070BD10B5FFF74EFC124B134A134C002065
:101020004BF6FF71186059602823136093601361B9
:1010300093611362936213639363092222600C4CE1
:1010400020600C4801600C490B608B600B4B1A60F0
:10105000FFF77EFA0420FFF7C7FFBDE8104001F05C
:10106000BFB900BF048003400C80034000800340F0
:1010700004900340089003400C900340009003400C
:1010800070B5072405464C4303E0013C01D1002024
:1010900070BD2B78002BF8D101E0013CF7D02B7804
:1010A000002BFAD0FFF780FF064601E0013CEED0AE
:1010B0002B78002BFAD1FFF777FF801B70BD70B53E
:1010C000072405464C4303E0013C01D1002070BDDC
:1010D0002B78002BF8D001E0013CF7D02B78002BC7
:1010E000FAD1FFF761FF064601E0013CEED02B7814
:1010F000002BFAD0FFF758FF801B70BD21280BD8BA
:10110000064B53F8300000F5007011B11146FFF79F
:10111000B7BF1146FFF7D3BF00207047DC90000037
:10112000174B1A6842F480621A60164B00221A703C
:101130005A709A70DA701A71134B40F213321A60B7
:101140004FF451725A60114BC0F344321A70C0F31D
:1011500047125A7000F01F000422022198729A7000
:10116000D9745A7588221A743C22DA70084B4022CE
:101170001A70A3F544734FF480321A60704700BFB1
:10118000348004403CECFF1F40A0044000A0064017
:1011900010E400E0134A937800F0030103F0EC033D
:1011A0000B43410748BF43F01003937000F00F0357
:1011B000042B0C4903D18B7943F040038B71537995
:1011C000C20603F0EF03074A48BF43F01003537110
:1011D0009379810603F0EF0348BF43F01003937146
:1011E000704700BF00A006400D4B1B68580510B5A6
:1011F00003D410BD01F068FE00E00A4C2379094ACF
:10120000002BF7D108494FF480300860074908489F
:10121000CB7040F20311016041601370537010BD38
:10122000348004403CECFF1F80E100E000A0064059
:1012300040A0044038B5094B04461D79002DFCD16F
:1012400020460121FFF77AFD20462946FFF74AFD97
:10125000034B53F83420014B9A6038BD3CECFF1F20
:10126000DC900000F8B51A4B1B685A0507462DD5CF
:10127000184A93680BB1012119709478154D164ED8
:1012800001343F2C88BF002414E0FFF7A5FA402862
:101290000CDC33791B060DD5EB7801333F2B88BF6F
:1012A0000023EA18127BF271EB7003E0FF2801DDE6
:1012B00001F00AFEEA78074BA242E6D01A1917732A
:1012C00001221A719C70044BBC22DA70F8BD00BF79
:1012D000348004403CECFF1F00A0064000F00F00EB
:1012E000092801D8303000E03730FFF7BBBF2DE9C7
:1012F000F84F254B1B68074658058A4641D5234BB6
:101300009B680BB101221A70204C3E46A34631E087
:10131000A5789BF8038001353F2D88BF0025A8459F
:1013200007D0631916F8012B1A7301232371A570D6
:1013300020E0174BBC22DA709946FFF74DFA40289F
:1013400010DC99F80430190610D5E37801333F2BEF
:1013500088BF00230BEB0302127B89F807208BF870
:10136000033003E0FF2801DD01F0AEFDE3784345E3
:10137000E3D0D6E707EB0A039E42C9D3044BBC2255
:10138000DA70BDE8F88F00BF348004403CECFF1FEA
:1013900000A0064010B5044C01E001F095FD237952
:1013A000002BFAD110BD00BF3CECFF1F044A93781C
:1013B000D078834201D33F3000E00138C01A704733
:1013C0003CECFF1F034A10785378984238BF4030F6
:1013D000C01A70473CECFF1F084A117853789942B5
:1013E00008D001333F2B88BF0023D11891F84C005F
:1013F000537070474FF0FF30704700BF3CECFF1F49
:10140000074A11785378994207D001333F2B88BFA0
:101410000023D31893F84C0070474FF0FF3070470B
:101420003CECFF1F094B1B685B050DD5084BDA78B8
:1014300002F0CB02DA7040225A74DA7842F03402B9
:10144000DA70044B5A781A70704700BF3480044039
:1014500000A006403CECFF1F70B52C4B1A7912F02F
:10146000300F1DD072B6997D21B9DA7940225A74B5
:1014700062B615E062B62648027844781D46531CD1
:101480003F2B88BF0023A342EE7903D0C21882F815
:101490004C601A46013911F0FF01F0D11C4B1A7053
:1014A0001A4AD37818465BB2002B1ADA1379190658
:1014B00017D517498D78CB78AB420AD001333F2B33
:1014C00088BF00231479CC18247BD471147D072C99
:1014D000F2D90F4AD3700D4B1A79120601D57C222E
:1014E000DA7000F04003DBB273B1084B1A7902F0F6
:1014F0004002D2B219463AB1054B00221A719B68DC
:1015000003B11A703C23CB7070BD00BF00A0064031
:101510003CECFF1F38B5451E07E00A2C02D10D2018
:10152000FFF7A0FE2046FFF79DFE15F8014F002CA7
:10153000F3D138BD10B504460009FFF7CFFE2046B1
:10154000BDE81040FFF7CABE10B50446000AFFF719
:10155000F1FF2046BDE81040FFF7ECBF10B5044690
:10156000000EFFF7E7FF200CFFF7E4FF200AFFF76C
:10157000E1FF2046BDE81040FFF7DCBF144B1A68BE
:1015800042F400621A60134A002313705370937080
:10159000D3701371104A40F2133111604FF451713E
:1015A00051600E4AC0F344311170C0F3471100F08E
:1015B0001F0051709072937013742C23D370084BDA
:1015C00040221A70074B4FF480221A60704700BF08
:1015D00034800440C8ECFF1F0CB0044000B006404B
:1015E00012E400E000E100E0134A937800F0030108
:1015F00003F0EC030B43410748BF43F01003937023
:1016000000F00F03042B0C4903D18B7943F0400306
:101610008B715379C20603F0EF03074A48BF43F0CA
:10162000100353719379810603F0EF0348BF43F031
:1016300010039371704700BF00B006400D4B1B684C
:10164000180510B503D410BD01F03EFC00E00A4CB3
:101650002379094A002BF7D108494FF4802008600C
:1016600007490848CB7040F20311016041601370D4
:10167000537010BD34800440C8ECFF1F80E100E0CF
:1016800000B006400CB0044038B5094B04461D7943
:10169000002DFCD120460121FFF750FB20462946B2
:1016A000FFF720FB034B53F83420014B9A6038BD01
:1016B000C8ECFF1FDC900000F8B51A4B1B681A0538
:1016C00007462DD5184A93680BB1012119709478FB
:1016D000154D164E0134272C88BF002414E0FFF767
:1016E0007BF840280CDC33791B060DD5EB780133F1
:1016F000272B88BF0023EA18127BF271EB7003E0FE
:10170000FF2801DD01F0E0FBEA78074BA242E6D0BA
:101710001A19177301221A719C70044BAC22DA70EB
:10172000F8BD00BF34800440C8ECFF1F00B0064085
:1017300038B54518044603E014F8010BFFF7BCFF69
:10174000AC42F9D138BD10B5034C01E001F0BCFB4F
:101750002379002BFAD110BDC8ECFF1F044A9378FF
:10176000D078834201D3273000E00138C01A704797
:10177000C8ECFF1F034A10785378984238BF4030B6
:10178000C01A7047C8ECFF1F084A11785378994275
:1017900008D001333F2B88BF0023D11891F83400C3
:1017A000537070474FF0FF30704700BFC8ECFF1F09
:1017B000074A11785378994207D001333F2B88BFED
:1017C0000023D31893F8340070474FF0FF30704770
:1017D000C8ECFF1F014B5A781A707047C8ECFF1F06
:1017E00010B5204B1A7902F02002D2B26AB11E4A1B
:1017F000D8791378517801333F2B88BF00238B426F
:1018000003D0D11881F8340013701649CB781846EC
:101810005BB2002B12DA0B791B060FD5124A9478B3
:10182000D3789C4202D16C23CB7007E00133272B85
:1018300088BF0023D418247BCC71D37000F0400300
:10184000DBB273B1074B1A7902F04002D2B21946EB
:101850003AB1054B00221A719B6803B11A702C2310
:10186000CB7010BD00B00640C8ECFF1F144B1A68C7
:1018700042F480521A60134A00231370537093701D
:10188000D3701371104A40F2133111604FF451714B
:1018900051600E4AC0F344311170C0F3471100F09B
:1018A0001F0051709072937013742C23D370084BE7
:1018B00040221A70A3F545734FF480121A607047E6
:1018C000348004403CEDFF1F08C0044000C00640C7
:1018D00014E400E0134A937800F0030103F0EC03F2
:1018E0000B43410748BF43F01003937000F00F0310
:1018F000042B0C4903D18B7943F040038B7153794E
:10190000C20603F0EF03074A48BF43F010035371C8
:101910009379810603F0EF0348BF43F010039371FE
:10192000704700BF00C006400D4B1B68D80410B5BF
:1019300003D410BD01F0C8FA00E00A4C2379094A2B
:10194000002BF7D108494FF4801008600749084878
:10195000CB7040F20311016041601370537010BDF1
:10196000348004403CEDFF1F80E100E000C00640F1
:1019700008C0044038B5094B04461D79002DFCD140
:1019800020460121FFF7DAF920462946FFF7AAF998
:10199000034B53F83420014B9A6038BD3CEDFF1FD8
:1019A000DC900000F8B51A4B1B68DA0407462DD509
:1019B000184A93680BB1012119709478154D164E91
:1019C0000134272C88BF002414E0FEF705FF4028CF
:1019D0000CDC33791B060DD5EB780133272B88BF40
:1019E0000023EA18127BF271EB7003E0FF2801DD9F
:1019F00001F06AFAEA78074BA242E6D01A19177387
:101A000001221A719C70044BAC22DA70F8BD00BF41
:101A1000348004403CEDFF1F00C0064038B5451837
:101A2000044603E014F8010BFFF7BCFFAC42F9D108
:101A300038BD10B5034C01E001F046FA2379002BC4
:101A4000FAD110BD3CEDFF1F044A9378D078834251
:101A500001D3273000E00138C01A70473CEDFF1F6A
:101A6000034A10785378984238BF4030C01A704704
:101A70003CEDFF1F084A11785378994208D0013392
:101A80003F2B88BF0023D11891F834005370704762
:101A90004FF0FF30704700BF3CEDFF1F074A117841
:101AA0005378994207D001333F2B88BF0023D318C6
:101AB00093F8340070474FF0FF3070473CEDFF1F44
:101AC000014B5A781A7070473CEDFF1F10B5204B40
:101AD0001A7902F02002D2B26AB11E4AD87913787C
:101AE000517801333F2B88BF00238B4203D0D1189C
:101AF00081F8340013701649CB7818465BB2002B7E
:101B000012DA0B791B060FD5124A9478D3789C42CF
:101B100002D16C23CB7007E00133272B88BF002351
:101B2000D418247BCC71D37000F04003DBB273B1C6
:101B3000074B1A7902F04002D2B219463AB1054B6E
:101B400000221A719B6803B11A702C23CB7010BD50
:101B500000C006403CEDFF1F1FB572B6154B70224A
:101B60001A70154A412111700F2102F8011C8022C0
:101B70001A701A781206FCD5104B186862B6104B12
:101B8000984201D80A23584301A90A22FEF74AFEC7
:101B90000C48002301AA9A5C2AB100EB43010133EF
:101BA0000A2B4A80F6D10133064A5B00137005B058
:101BB00000BD00BF000002400700024008000240D4
:101BC0007F9698006EE5FF1F70B50C4B0C4C1A7891
:101BD00042F0020504EBC50682F0010270605878FD
:101BE0001A7000280CBF8826C82646EA014180F0FA
:101BF000010044F83510587070BD00BFB0EDFF1FF4
:101C000000E0FF1F431E032B10B510D872B6094A1F
:101C100002EB8302506840B141685160064A018876
:101C200032F81340611A22F8131062B610BD00207A
:101C300010BD00BFB0EDFF1F70EFFF1F013803287C
:101C40000DD8084B03EB8000436972B6002002E018
:101C50001A885B688018002BFAD162B670470020A2
:101C6000704700BFB0EDFF1F013803280CD872B6D3
:101C7000064B03EB80004369002001E05B68013004
:101C8000002BFBD162B6704700207047B0EDFF1FFC
:101C900070B572B61A4E1B4C01239A1912F8012C1A
:101CA00002F00802D2B2F2B19900164A54F831504B
:101CB0002DB902EB431308305860134B09E041F093
:101CC000010154F8315075B902EBC1030830586076
:101CD0000E4B42F831300E4B93F82420013A83F832
:101CE000242062B670BD0133052BD6D162B6084BF5
:101CF000002283F82420BDE8704000F0DDBB00BF67
:101D0000EC91000000E0FF1F88004000C800400088
:101D1000B0EDFF1F421E032A30B533D840011A4BE5
:101D200040F01000181872B6184CA31893F825301C
:101D3000032B09D8DFE803F013021505083002234E
:101D400010E0083004230DE09200A318586908B988
:101D5000596101E0DB6A5960A218D16211E00323E6
:101D600000E00523A21810F0080F82F8253001F1D9
:101D700008030A8843600CBF8823C82343EA024350
:101D8000036062B630BD00BF00E0FF1FB0EDFF1F73
:101D900000BE70472DE9F74FAB4EAC4C357805F0DF
:101DA0000403DBB2BBB1AA4B93F844208AB193F889
:101DB00045202AB1013AD2B283F8452002B900BECB
:101DC000A44A13782BB1013BDBB213700BB900F0BE
:101DD000EFFC0423337005F00802D2B2002A00F0B1
:101DE000AF829D4B1B781D094FEA930940F0058295
:101DF00004EBC903596854F83930C3F38303013B3A
:101E00000C2B00F2F681DFE813F0AB01AB01F4011B
:101E1000F401F401F401F401F401C901F401F40145
:101E2000F4010D004B688A480A68C3648B4B8264D6
:101E300040F2816592B244F8393001210023AA4270
:101E400003652361A361417017D8B2F5D06F80F0AC
:101E50002C81B2F5817F00F0E58006D8802A00F061
:101E6000C580822A40F04081C5E040F202339A42A8
:101E700000F00A81B2F5A06F16E042F22105AA42F5
:101E800000F06B8108D8B2F5086F00F0A880B2F5B9
:101E9000106F40F029810AE042F221218A4200F0CD
:101EA0001E8142F221339A4240F01E8120E190F8D7
:101EB0004A30664D80F844302B6A180603D5686AAC
:101EC000083800F0F9FA664908358D42F4D1DFF898
:101ED000B0B10025A846D9460BF1500A55F80B00C1
:101EE00005E04368009300F0E7FA009B18460028DD
:101EF000F7D15C4B49F8050045F80A00E85807E0BF
:101F000042680093019200F0D7FA019A009B1046B4
:101F10000028F5D15851544BE850544B23F8180081
:101F2000534B18F80320023A032A08D8DFE802F0DE
:101F300002040204002200E0012203F8082008F154
:101F400001080435B8F1040FC8D1414BDFF83491D2
:101F5000002283F8242001259846464B05EB090210
:101F6000EB1812F8012C9B001A7002F00802D2B292
:101F70003AB300F083FAAB0038B104EB45120830F5
:101F800050603D4A44F8332006E044F8330098F8A6
:101F90002430013388F8243000F070FAAB0043F0AD
:101FA000010338B104EBC302083050602B4A44F8F7
:101FB000332006E044F8330098F82430013388F8E1
:101FC0002430AA0042F00201013542F0030200234E
:101FD000052D44F8313044F83230BED189E090F814
:101FE0004430054605F83C3F0B4687E080F83C301E
:101FF00080F83D307FE0B0F84C20042A00D973E02F
:1020000080F83C3080F83D301C4B9200D3181B7890
:1020100003F00203DBB2002B6DD00546022305F866
:102020003C1F6BE0B0F84C2002F07F03042B5BDC1C
:10203000B0F84A3003B157E09100104A8A1811787D
:1020400021F002014EE000BF8020074000E0FF1FAA
:10205000B0EDFF1FA5EEFF1F90200740C800400015
:1020600080E0FF1FC4EDFF1FDCEDFF1F70EFFF1FBF
:10207000D5EDFF1F30C8011088004000C020074088
:10208000B4EDFF1FEC910000B0F84C2002F07F038C
:10209000042B29DCB0F84A3003B125E091009E4AB8
:1020A0008A18117841F002011CE0B0F84A20B0F81B
:1020B0004C109A4B53F8085CA3F10C00A5B133F80F
:1020C0000CCC944509D133F80ACC8C4505D1120AC1
:1020D000032A0CBF2B78038910E00C33EAE790F851
:1020E0004A108F4A117004E08B4B0F221A7034E0B3
:1020F00000231D4602E0022300F13C05894AB2F8A4
:102100004E904B4538BF9946B9F1400F34BFC84691
:102110004FF0400828464146FFF756FDB9EB080945
:10212000454403D1B8F1400F07D016E0B9F1400F94
:1021300034BFC8464FF0400800E0C8462846414634
:10214000FFF742FDB9EB0809454402D1B8F1400F51
:1021500003D1744A1565A2F864900122724B47E0DE
:10216000704BB3F8482042F221039A4212D16F4AD1
:102170000023C85C98540133072BFAD16B4B1B68C2
:10218000862B03D1674B0F2283F8452000200146A0
:10219000FFF71AFD664B44F839302AE0DFF88491E6
:1021A000D9F85080B8F1000F16D0B9F864A0BAF190
:1021B000400F34BF5546402540462946FFF704FDF1
:1021C000C5EB0A039BB2A9F864300BB9402D01D1CD
:1021D00008EB0503534A1365524BB3F84820B2F598
:1021E000A06F06D1002283F8492093F84A20514B72
:1021F0001A704D4B01221A708AE004EBC90803F0F3
:102200000803D8F80420013DD9B2A2F10800EDB2CC
:10221000002945D000F050F9424B03EB850041699D
:1022200021B34A68426101F10802C8F804205A1932
:1022300092F82520032A10D8DFE802F00205080BE7
:102240005D19032307E05D19022304E05D190523EE
:1022500001E05D19042385F8253018F0080F0A887D
:102260000CBF8823C82343EA02434FE05A1992F86F
:102270002520032A0BD8DFE802F04B4B02055D193D
:10228000002301E05D19012385F8253040E018F0B6
:10229000080F1D440CBF0222032285F8252037E0D9
:1022A00054F839301B0C22F8083C4BB322F8061CBA
:1022B00042F8041C1B4A4FEA850E02EB0E019446BD
:1022C0004A680AB9486001E04A6D50600CEB0E02A2
:1022D000DFF850A05065184A32F815105B1822F844
:1022E000153000F0CBF818B10830C8F8040007E04A
:1022F0009AF8243044F8390001338AF8243007E092
:102300000B4B0E4A18F0080F08BF134644F839303B
:102310000823337042E500BFC0200740FC91000055
:10232000A6EEFF1FB0EDFF1F9420074078EFFF1FC0
:10233000C80040009820074070EFFF1F8800400051
:10234000E90720D51D4C1E481E4D2146022303706F
:1023500001F8682B1C4BA8341D6059601A619A6102
:102360009D60DC60194B0D2119701949FF230B701A
:1023700001F8083C0A74174A1370174B9F221A7011
:102380000123037018E02B0605D5104B0D221A709F
:10239000802203F8402C05F00203DBB22BB10C4B7A
:1023A0001A781A70022203F8082C05F01005EDB215
:1023B00015B10A4B10221A70BDE8FE8FB0EDFF1F59
:1023C000942007408800400000E0FF1FC020074025
:1023D000882007408C200740842007408020074049
:1023E00008B5FFF7B9FB00231D491A465A50C81813
:1023F0000833882B4260F9D11A4B1A6842F48022C4
:102400001A60194B80221A701978174A0906FBD4F2
:10241000134B1649C3F307200870C3F307401B0E84
:1024200008750B76FF2301F81C3C01F8143C01F8F9
:102430008C3C137843F0400313700021012302F811
:10244000783C02F80C1C02F8883C094B70221A7088
:10245000084B08221A60084B10221A7008BD00BFF2
:1024600000E0FF1F348004400C2107409C200740FF
:1024700023E400E004E100E00821074072B60C4AC2
:102480001168B1FA81F30B2B02D962B600207047B4
:102490004FF0004020FA03F021EA0001116062B61B
:1024A000044948225343C8180022CA50426070476A
:1024B0000CE6FF1F00E2FF1F0C4B4822C31AB3FBC0
:1024C000F2F30B2B11D80A4A127822B1094A12787A
:1024D0000AB1FFF7DDBB72B6074A4FF0004121FA9F
:1024E00003F311681943116062B6704700E2FF1FE1
:1024F000D4EDFF1FF4EDFF1F0CE6FF1F38B5114CA4
:1025000023684BB10F4D28684288811801320C7A3C
:1025100001888A4212D30CE00B4B1B7813B94FF0A1
:10252000FF340CE00320FFF76DFB20600028E9D1A9
:10253000F5E7FFF7C1FF00232B6000E04280204653
:1025400038BD00BF98EEFF1FF4EDFF1F10B50C4C17
:1025500023681BB10A4B1B686BB902E0094B1B785F
:1025600013B94FF0FF3010BD0320FFF74BFB206085
:102570000028EFD1F5E75A889B18187A10BD00BFE4
:1025800098EEFF1FF4EDFF1F044B9888044B1B6867
:102590001BB11A885B88D31AC018704770EFFF1FF1
:1025A00098EEFF1F2DE9F0470E4681464FF00008D8
:1025B000DFF868A0184F2AE09AF800304BB33B6868
:1025C0004BB90320FFF71EFB386010B3038813B923
:1025D000FFF772FFF5E73C68618825886D1AAE4207
:1025E00038BF3546083148462A46611801F05EFC7E
:1025F0006388A944A844761BED182388ADB2AB428A
:10260000658004D82046FFF757FF00233B60002E6B
:10261000D2D14046BDE8F08798EEFF1FF4EDFF1FD2
:1026200010B5094B1B786BB1084C206818B1FFF747
:1026300043FF002323600320FFF7E4FA10B1FFF704
:102640003BFFF8E710BD00BFF4EDFF1F98EEFF1F42
:102650002DE9F8432B4CDFF8B08001230D462371A0
:10266000064647E0A3681BBB47F209574FF0010934
:1026700098F8003013B9234A137112E00420FFF7D1
:10268000F3FA072806D884F80490FFF7F7FEA06055
:1026900070B92071013F01D0237B33B1194B012266
:1026A0001A734FF0FF30BDE8F88300F00DFCDFE750
:1026B000A1684888C0F14002954238BF2A4600F11F
:1026C0000807002380182373CF194880AD1A02E051
:1026D000F05CF85401339342FAD1F6184B883F2B43
:1026E00006D940230B800420FFF714FB0023A360CE
:1026F00005236373002DB5D1024B28461D71BDE83B
:10270000F88300BF98EEFF1FF4EDFF1F07B502AB83
:10271000012103F8010D1846FFF79AFF0EBD0F4B7C
:10272000012210B51A719A681C467AB90C4B1B78B5
:1027300013B90020207110BD0420FFF795FA072877
:10274000F7D8FFF79BFEA0600028F2D0034B9A68F1
:1027500050880022C0F140001A7110BD98EEFF1F92
:10276000F4EDFF1F70B5104B1B78DBB10F4CA56863
:10277000012626714DB16B880026667304202B80DC
:102780002946FFF7C7FAA66009E0FFF777FE014682
:1027900020B104206573FFF7BDFA00E06673034BB8
:1027A00000221A7170BD00BFF4EDFF1F98EEFF1FED
:1027B00038B50C4C25799DB9A16831B14B880420FE
:1027C0000B80FFF7A7FAA56038BDFFF757FE01465B
:1027D00020B10420BDE83840FFF79CBA01236373A1
:1027E00038BD00BF98EEFF1F0A4B4FF0FF321F2984
:1027F00028BF1F2110B59A60186019714FF48172BB
:10280000002303E002FB0304637001338B42F9D120
:1028100010BD00BFA8EEFF1F30B572B6104B9A680E
:102820001879B2FA82F1814202D362B6002030BD3B
:102830004FF0004020FA01F022EA00029A601A7B71
:102840000132D2B21A7362B64FF4817041431C68F0
:10285000012565546018597B914238BF5A7330BDC9
:10286000A8EEFF1F427872B60378012B02D9013B14
:1028700003700AE0064B4FF0004121FA02F19A681A
:102880000A439A601A7B013A1A7362B6704700BF16
:10289000A8EEFF1F30B5C3680EE0187A90420AD147
:1028A00058685C7A006950F8245025B940F8241023
:1028B000087801300870DB68002BEED130BD437A18
:1028C00099424FF0000305D2026952F8210042F804
:1028D000213070471846704738B5437A994201D382
:1028E000002418E0036953F82140002243F8212016
:1028F000002CF5D02378012B0DD9FFF78DFF05466D
:1029000028B10230A11C4FF4807201F0CFFA237875
:10291000013B23702C46204638BD10B54168427AF1
:102920004B7A9A420ED872B60268D36813B9D06057
:1029300004E02346DC68002CFBD1D860012313722D
:102940000B7262B610BD084B9A7B5AB9074AFF2139
:102950006FF44A70117012184FF400510120116089
:102960009873704700207047A8EEFF1F2DE400E029
:10297000034B4FF400521A60024B00229A737047C7
:1029800084E100E0A8EEFF1FF8B5164B164D1A685B
:1029900042F080721A60154B1A6842F001021A6008
:1029A000134B2E681C690FE0237A63B121682F68EE
:1029B0000B68204698472B68E288DB1B1B09934273
:1029C000A38088BFE3806469002CEDD1064B1A68B0
:1029D000074B921BD98A12098A429A8288BFDA82EF
:1029E000F8BD00BFFCED00E0041000E0001000E0C6
:1029F000A8EEFF1F704708B50368C9B21B68984767
:102A000008BD08B50368C9B21B68984708BD08B57A
:102A10000368C9B21B68984708BD08B50368C9B206
:102A20001B68984708BD084608B5FEF71BFC012047
:102A300008BD084608B5FEF715FC012008BD38B5ED
:102A400008460D46FDF7E6FE044621462846FEF7F9
:102A50004EFC204638BD10B5084614461146FEF718
:102A600046FC204610BDFEF7A1BCFEF7DBBCFEF71E
:102A700091BCFEF7B1BCFEF7C3BCFEF7A3BC084691
:102A8000FEF7D8BBFEF7B0BB480800F1B76000F511
:102A90005840B0FBF1F0FEF743BB480800F1B760C7
:102AA00010B500F55840B0FBF1F01446FEF738FBC6
:102AB0002046BDE81040FEF76DBBFFFF044B00222F
:102AC0001A711A73034A4FF47A7199601A60704749
:102AD000C0EEFF1F50920000704708B50368C9B2EE
:102AE0001B68984708BD08B50368C9B21B689847BA
:102AF00008BD08B50368C9B21B68984708BD08B58A
:102B00000368C9B21B68984708BD084608B5FEF7B8
:102B1000D3FD012008BD084608B5FEF7CDFD012014
:102B200008BD38B508460D46FDF774FE044621463B
:102B30002846FEF7FDFD204638BD10B50846144670
:102B40001146FEF7F5FD204610BDFEF707BEFEF765
:102B500041BEFEF7F8BDFEF717BEFEF729BEFEF731
:102B600009BE0846FEF790BDFEF768BD480800F1B3
:102B7000B76000F55840B0FBF1F0FEF7FFBC480825
:102B800000F1B76010B500F55840B0FBF1F0144605
:102B9000FEF7F4FC2046BDE81040FEF725BDFFFF20
:102BA000044B00221A711A73034A4FF47A71996028
:102BB0001A607047D0EEFF1FA0920000704708B562
:102BC0000368C9B21B68984708BD08B50368C9B255
:102BD0001B68984708BD08B50368C9B21B689847C9
:102BE00008BD08B50368C9B21B68984708BD084608
:102BF00008B5FEF7D7FE012008BD084608B5FEF768
:102C0000D1FE012008BD38B508460D46FDF702FE8D
:102C1000044621462846FEF701FF204638BD10B580
:102C2000084614461146FEF7F9FE204610BDFEF791
:102C30000BBFFEF745BFFEF7FCBEFEF71BBFFEF75E
:102C40002DBFFEF70DBF0846FEF794BEFEF76CBE23
:102C5000480800F1B76000F55840B0FBF1F0FEF70E
:102C600005BE480800F1B76010B500F55840B0FB4C
:102C7000F1F01446FEF7FAFD2046BDE81040FEF7DD
:102C800029BEFFFF044B00221A711A73034A4FF446
:102C90007A7199601A607047E0EEFF1FF0920000B1
:102CA00008B5034B01221A60024B1B68984708BD08
:102CB0000C710340F0EEFF1F08B5034B01221A60B0
:102CC000024B5B68984708BD1C710340F0EEFF1F84
:102CD00008B5034B01221A60024B9B68984708BD58
:102CE0002C710340F0EEFF1F08B5034B01221A6060
:102CF000024BDB68984708BD3C710340F0EEFF1FB4
:102D0000054B1A6842F400021A60044B00221A6054
:102D1000034B01221A7470473C800440007003404A
:102D2000F0EEFF1F054B01221A60054B1A6822F4D2
:102D300000021A60034B00221A74704700700340AF
:102D40003C800440F0EEFF1FF0B54478134D144F63
:102D500023015A194260134A9E18866004F11E0628
:102D60000673066947F8246000249C5059510321DA
:102D70009950037B427B03F1604303F564430121D7
:102D80001A70037B5A11920002F1604202F561420F
:102D900003F01F0301FA03F31360F0BD0071034059
:102DA000F0EEFF1F08710340F8B50D4B1B7C064683
:102DB0000F460BB9FFF7A4FF0024094D05F11102DE
:102DC000A25C42B97470304639462C19FFF7BCFF3B
:102DD00001206074F8BD0134042CEED10020F8BD50
:102DE000F0EEFF1F037B0122591103F01F0302FACB
:102DF00003F3094A42F821308268002313604178C6
:102E0000064A511811324B74995C21B90133042BD5
:102E1000FAD1FFF787BF704780E100E0F0EEFF1FB7
:102E2000037810B504460BB1FFF7DCFF00232370D5
:102E300010BD037870B504460D4616461BB1FFF76A
:102E4000D1FF00232370256120463146FFF7ACFFF8
:102E500010B10123237000E02070207870BD00BF06
:102E600010B50446FFF7DCFF204610BD04480549B5
:102E7000054A0023037280234375083000F0FEBC2E
:102E800008EFFF1F612E000060E5FF1F7047084636
:102E90001146FFF7DDBB0846FFF738BCFFF762BC01
:102EA000FFF754BBFFF72ABBFFF76EBB044B0022B2
:102EB0001A711A73034A4FF47A7199601A60704755
:102EC00028EFFF1F4093000008B50E4B1A78C2B9D7
:102ED00001221A70FFF758FB08B1FFF7D7FFFEF782
:102EE00071FA08B1FFF786FDFEF744FC08B1FFF761
:102EF000F3FDFEF7B5FD08B1FFF760FE014B0022C0
:102F00001A7008BD38EFFF1F80B50D200121FDF7B5
:102F100015FF2024064E074D274637604FF4FA7000
:102F2000FEF762F82C604FF4FA70FEF75DF8F4E7F4
:102F300084F00F4088F00F4050EA010201D10220D6
:102F40007047D0F1010238BF0022B1F1004F08BF35
:102F50000028F4D021F000434FF6FF71A3F5801054
:102F6000C7F6DF71884201D804207047B3F5801F8F
:102F700001D2032070470020C7F6F070834214BFCF
:102F8000002002F00100704781F0004102E000BF24
:102F900083F0004330B54FEA41044FEA430594EA19
:102FA000050F08BF90EA020F1FBF54EA000C55EA54
:102FB000020C7FEA645C7FEA655C00F0E2804FEA25
:102FC0005454D4EB5555B8BF6D420CDD2C4480EA07
:102FD000020281EA030382EA000083EA010180EA37
:102FE000020281EA0303362D88BF30BD11F0004F85
:102FF0004FEA01314FF4801C4CEA113102D04042BB
:1030000061EB410113F0004F4FEA03334CEA1333F5
:1030100002D0524263EB430394EA050F00F0A7800D
:10302000A4F10104D5F1200E0DDB02FA0EFC22FA08
:1030300005F2801841F1000103FA0EF2801843FAFC
:1030400005F359410EE0A5F120050EF1200E012AED
:1030500003FA0EFC28BF4CF0020C43FA05F3C0182B
:1030600051EBE37101F0004507D54FF0000EDCF1A4
:10307000000C7EEB00006EEB0101B1F5801F1BD34D
:10308000B1F5001F0CD349085FEA30004FEA3C0C51
:1030900004F101044FEA445212F5800F80F09A8047
:1030A000BCF1004F08BF5FEA500C50F1000041EB4B
:1030B000045141EA050130BD5FEA4C0C404141EB4F
:1030C000010111F4801FA4F10104E9D191F0000F76
:1030D00004BF01460020B1FA81F308BF2033A3F1F9
:1030E0000B03B3F120020CDA0C3208DD02F1140CF0
:1030F000C2F10C0201FA0CF021FA02F10CE002F12B
:103100001402D8BFC2F1200C01FA02F120FA0CFC23
:10311000DCBF41EA0C019040E41AA2BF01EB04516C
:10312000294330BD6FEA04041F3C1CDA0C340EDC6A
:1031300004F11404C4F1200220FA04F001FA02F3AD
:1031400040EA030021FA04F345EA030130BDC4F16B
:103150000C04C4F1200220FA02F001FA04F340EA60
:103160000300294630BD21FA04F0294630BD94F011
:10317000000F83F4801306BF81F480110134013DF8
:103180004EE77FEA645C18BF7FEA655C29D094EA69
:10319000050F08BF90EA020F05D054EA000C04BFE7
:1031A0001946104630BD91EA030F1EBF00210020D2
:1031B00030BD5FEA545C05D14000494128BF41F071
:1031C000004130BD14F580043CBF01F5801130BDD5
:1031D00001F0004545F0FE4141F470014FF0000060
:1031E00030BD7FEA645C1ABF194610467FEA655C11
:1031F0001CBF0B46024650EA013406BF52EA0335B3
:1032000091EA030F41F4002130BD00BF90F0000FA0
:1032100004BF0021704730B54FF4806404F13204DC
:103220004FF000054FF0000150E700BF90F0000F95
:1032300004BF0021704730B54FF4806404F13204BC
:1032400010F0004548BF40424FF000013EE700BF8C
:1032500042004FEAE2014FEA31014FEA02701FBF1C
:1032600012F07F4393F07F4F81F06051704792F0EE
:10327000000F14BF93F07F4F704730B54FF4607468
:1032800001F0004521F0004120E700BF50EA0102B3
:1032900008BF704730B54FF000050AE050EA010260
:1032A00008BF704730B511F0004502D5404261EBD0
:1032B00041014FF4806404F132045FEA915C3FF411
:1032C000DCAE4FF003025FEADC0C18BF03325FEAAA
:1032D000DC0C18BF033202EBDC02C2F1200300FA5F
:1032E00003FC20FA02F001FA03FE40EA0E0021FA84
:1032F00002F11444C1E600BF70B54FF0FF0C4CF46E
:10330000E06C1CEA11541DBF1CEA135594EA0C0F23
:1033100095EA0C0F00F0DEF82C4481EA030621EA5E
:103320004C5123EA4C5350EA013518BF52EA033599
:1033300041F4801143F4801338D0A0FB02CE4FF04B
:103340000005E1FB02E506F00042E0FB03E54FF07B
:103350000006E1FB03569CF0000F18BF4EF0010E73
:10336000A4F1FF04B6F5007F64F5407404D25FEA6F
:103370004E0E6D4146EB060642EAC62141EA555122
:103380004FEAC52040EA5E504FEACE2EB4F1FD0C64
:1033900088BFBCF5E06F1ED8BEF1004F08BF5FEAE2
:1033A000500E50F1000041EB045170BD06F0004694
:1033B00046EA010140EA020081EA0301B4EB5C0441
:1033C000C2BFD4EB0C0541EA045170BD41F4801139
:1033D0004FF0000E013C00F3AB8014F1360FDEBF5E
:1033E000002001F0004170BDC4F10004203C35DA3A
:1033F0000C341BDC04F11404C4F1200500FA05F3BD
:1034000020FA04F001FA05F240EA020001F000425D
:1034100021F0004110EBD37021FA04F642EB0601D3
:103420005EEA430E08BF20EAD37070BDC4F10C04FD
:10343000C4F1200500FA04F320FA05F001FA04F2C1
:1034400040EA020001F0004110EBD37041F10001AD
:103450005EEA430E08BF20EAD37070BDC4F12005B8
:1034600000FA05F24EEA020E20FA04F301FA05F220
:1034700043EA020321FA04F001F0004121FA04F2C8
:1034800020EA020000EBD3705EEA430E08BF20EA98
:10349000D37070BD94F0000F0FD101F000464000D2
:1034A00041EB010111F4801F08BF013CF7D041EA54
:1034B000060195F0000F18BF704703F00046520058
:1034C00043EB030313F4801F08BF013DF7D043EA29
:1034D0000603704794EA0C0F0CEA135518BF95EADF
:1034E0000C0F0CD050EA410618BF52EA4306D1D166
:1034F00081EA030101F000414FF0000070BD50EA85
:10350000410606BF1046194652EA430619D094EA0E
:103510000C0F02D150EA013613D195EA0C0F05D1F8
:1035200052EA03361CBF104619460AD181EA03014C
:1035300001F0004141F0FE4141F470014FF0000004
:1035400070BD41F0FE4141F4780170BD70B54FF09F
:10355000FF0C4CF4E06C1CEA11541DBF1CEA13551F
:1035600094EA0C0F95EA0C0F00F0A7F8A4EB050401
:1035700081EA030E52EA03354FEA013100F08880F8
:103580004FEA03334FF0805545EA131343EA1263C1
:103590004FEA022245EA111545EA10654FEA002676
:1035A0000EF000419D4208BF964244F1FD0404F52F
:1035B000407402D25B084FEA3202B61A65EB03058B
:1035C0005B084FEA32024FF480104FF4002CB6EB48
:1035D000020E75EB030E22BFB61A754640EA0C00C8
:1035E0005B084FEA3202B6EB020E75EB030E22BF08
:1035F000B61A754640EA5C005B084FEA3202B6EB49
:10360000020E75EB030E22BFB61A754640EA9C0007
:103610005B084FEA3202B6EB020E75EB030E22BFD7
:10362000B61A754640EADC0055EA060E18D04FEA95
:10363000051545EA16754FEA06164FEAC30343EA35
:1036400052734FEAC2025FEA1C1CC0D111F4801F02
:103650000BD141EA00014FF000004FF0004CB6E7FB
:1036600011F4801F04BF01430020B4F1FD0C88BF9A
:10367000BCF5E06F3FF6AFAEB5EB030C04BFB6EBA5
:10368000020C5FEA500C50F1000041EB045170BD98
:103690000EF0004E4EEA113114EB5C04C2BFD4EBC5
:1036A0000C0541EA045170BD41F480114FF0000E49
:1036B000013C90E645EA060E8DE60CEA135594EAC5
:1036C0000C0F08BF95EA0C0F3FF43BAF94EA0C0FC8
:1036D0000AD150EA01347FF434AF95EA0C0F7FF43D
:1036E00025AF104619462CE795EA0C0F06D152EA91
:1036F00003353FF4FDAE1046194622E750EA410675
:1037000018BF52EA43067FF4C5AE50EA41047FF485
:103710000DAF52EA43057FF4EBAE12E74FF0FF3CEA
:1037200006E000BF4FF0010C02E000BF4FF0010CBB
:103730004DF804CD4FEA410C7FEA6C5C4FEA430C34
:1037400018BF7FEA6C5C1BD001B050EA410C0CBF83
:1037500052EA430C91EA030F02BF90EA020F0020E5
:10376000704710F1000F91EA030F58BF994208BF4C
:1037700090422CBFD8176FEAE37040F00100704709
:103780004FEA410C7FEA6C5C02D150EA013C07D160
:103790004FEA430C7FEA6C5CD6D152EA033CD3D0AB
:1037A0005DF8040B704700BF8446104662468C46A5
:1037B0001946634600E000BF01B5FFF7B7FF0028D8
:1037C00048BF10F1000F01BD4DF808EDFFF7F4FF01
:1037D0000CBF012000205DF808FB00BF4DF808ED8C
:1037E000FFF7EAFF34BF012000205DF808FB00BFAF
:1037F0004DF808EDFFF7E0FF94BF012000205DF8D1
:1038000008FB00BF4DF808EDFFF7CEFF94BF012085
:1038100000205DF808FB00BF4DF808EDFFF7C4FF7E
:1038200034BF012000205DF808FB00BF4FEA4102D1
:1038300012F5001215D211D56FF47873B3EB625202
:1038400012D94FEAC12343F0004343EA505311F029
:10385000004F23FA02F018BF404270474FF00000BB
:10386000704750EA013005D111F0004008BF6FF0F9
:10387000004070474FF00000704700BF0346084605
:10388000194600F001B800BF30B405460C46134697
:1038900002202946224630BC02F0FAB970B549F23E
:1038A000945649F29455C0F20006C0F20005761B0A
:1038B000B61007D0043D002455F8043F0134984762
:1038C000A642F9D149F2AC5649F29455C0F200062D
:1038D000C0F20005761B05F057FEB61008D0043D77
:1038E000002455F8043F01349847A642F9D170BD31
:1038F00070BD00BF4EF210630146C1F6FF73186839
:1039000000F008B84EF210630146C1F6FF73186864
:1039100003F0B4BA2DE9F04F01F10B04162C83B07B
:10392000074630D924F00704E30F8C422CBF194618
:1039300043F0010100292FD1384600F0D7FBB4F540
:10394000FC7F2ED24FEAD40C4EF20476C1F6FF76FD
:1039500006EBCC02D368934200F01182596803F160
:103960000808DA68384621F0030499681B195C6876
:10397000CA6044F0010491605C6000F0B9FB40460D
:1039800003B0BDE8F08F002310248C422CBF1946F1
:1039900043F001010029CFD00C234FF000083B6019
:1039A000EDE75FEA542C04BF4FEAD40C4FEA4C0514
:1039B00040F08F804EF20476C1F6FF7606EB850567
:1039C000EB689D4206D10DE0002A80F25581DB684C
:1039D0009D4207D0596821F003010A1B0F2AF3DD2D
:1039E0000CF1FF3C0CF1010C4EF204723369C1F68C
:1039F000FF7202F1080E734508BFD2F8049022D07E
:103A0000586820F00300011B0F2900F3848100296E
:103A1000C2F814E0C2F810E066DAB0F5007F80F07A
:103A20004E81C1084FF0010802EBC100891008FA6D
:103A300001F851688568D86048EA0109C2F8049025
:103A40009D60EB60836001224FEAAC0302FA03F34E
:103A50004B4554D819EA030F0DD193402CF0030CB9
:103A600019EA030F0CF1040C05D15B000CF1040CF6
:103A700019EA030FF9D006EBCC09E0464846C268C4
:103A8000904207D15BE1002980F28381D2689042A5
:103A900000F05581556825F00305291B0F29F2DD3B
:103AA00090461319D56844F0010058F8084F41F0CA
:103AB000010C50603846C3F804C0E560AC60736127
:103AC0003361C3F80CE0C3F808E0595000F010FB74
:103AD00055E7BCF1040F00F2DE804FEA941C0CF1B4
:103AE000380C4FEA4C0565E71A1803F10808384608
:103AF000536843F00103536000F0FAFA3FE7B568FA
:103B00006B6823F0030A544504D8C4EB0A030F2B57
:103B100000F3A4804EF63C79D6F80814C1F6FF797C
:103B200005EB0A020131D9F80030234408BF03F144
:103B3000100B06D003F580530F3323F47F6323F07B
:103B40000F0B38465946019200F0BAFC019A411C0D
:103B5000804600F06881824200F23181D9F8043059
:103B600042455B44C9F8043000F06681D6F8081479
:103B70004EF20470C1F6FF70013117BFC2EB0802AC
:103B8000C0F808849B18C9F8043018F007033846B9
:103B90001FBFC3F10802C3F58053904403F108022C
:103BA00008EB0B0308BF4FF480521B051B0DC3EB42
:103BB000020B594600F084FC431C00F04981C8EB1D
:103BC0000001594441F00101D9F80430B5424EF6E4
:103BD0003C72C6F808805B44C1F6FF72C8F8041056
:103BE000C9F8043018D0BAF10F0F40F20B81AAF1D6
:103BF0000C00696820F007004FF0050C05EB000E83
:103C00000F2801F0010140EA01016960CEF804C00B
:103C1000CEF808C000F220814EF63C72D9F82C1084
:103C2000C1F6FF72B5688B42D9F8301088BFD362F5
:103C30004EF63C72C1F6FF728B4288BF13636A680E
:103C400022F003029442C4EB020301D80F2B05DCDF
:103C500038464FF0000800F04BFA90E62A1943F07E
:103C6000010344F0010438466C6005F10808536014
:103C7000B26000F03DFA82E65918DA689C6838466E
:103C80004D6803F1080845F00105E26094604D605D
:103C900000F02EFA73E6BCF1140F9CBF0CF15B0C24
:103CA0004FEA4C057FF686AEBCF1540F00F29380CC
:103CB0004FEA143C0CF16E0C4FEA4C057AE6420ACE
:103CC000042A75D9142A9CBF02F15B094FEA490501
:103CD00008D9542A00F2C9804FEA103909F16E0957
:103CE0004FEA490506EB85054EF20478C1F6FF78E8
:103CF000AA68AA4279D0516821F00301884202D211
:103D000092689542F7D1D068D6F80490D8609A604E
:103D1000D360836097E61D1941F00106556144F0B8
:103D20000104156138465C6003F10808C5F80CE031
:103D3000C5F808E06E60695000F0DAF91FE608F196
:103D40000108083018F0030F7FF499AE4A461CF0C2
:103D5000030FA2F108010CF1FF3C00F09E801268F5
:103D60008A42F4D072685B0093423FF6C8AE002BE3
:103D70003FF4C5AE1A4200F09580C4467BE603F1DD
:103D800008025B699A4208BF0CF1020C3FF42CAEAA
:103D9000E4E590465519D368384658F8082F696805
:103DA000D36041F001019A60696000F0A1F9E6E595
:103DB0004FEA901909F138094FEA490592E7B542EF
:103DC0004EF20473C1F6FF733FF4C8AE9D686A6893
:103DD00022F0030236E7BCF5AA7F19D84FEAD43C9B
:103DE0000CF1770C4FEA4C05E4E50125D8F80410F6
:103DF0004FEAA909104605FA09F545EA0109C8F88C
:103E0000049083E701234546C8F80430002219E7EF
:103E100040F254539C450BD84FEA944C0CF17C0C67
:103E20004FEA4C05C6E5B5686A6822F0030209E767
:103E3000FC254FF07E0CBDE51105090D00297FF42E
:103E400095AEB2680BEB0A0141F001015160E3E667
:103E500001214FF0000BB7E6384605F10801019249
:103E600003F00CF8019A5368D6E6B2F5AA7F06D89B
:103E70004FEAD03909F177094FEA490532E740F2B4
:103E80005451FC258A424FF07E099EBF4FEA90496B
:103E900009F17C094FEA490524E7726822EA030226
:103EA000726060E75B0008F1040863E7032A2DE90C
:103EB000F00F09D82AB10023CC5CC45401339342DB
:103EC000FAD1BDE8F00F7047830702440ED0441CBE
:103ED0004D1C15F8017C04F00306234601342946E5
:103EE000013504F8027C002EF3D100E0034611F006
:103EF00003046DD0D71A0D1B032F2E6819DDC4F1F2
:103F0000040C4FEAC4081C1D4FEACC0C55F8047F82
:103F1000C4EB0209234604310434B9F1030F26FA35
:103F200008FA07FA0CFB3E464BEA0A0744F8087CFD
:103F3000ECDC9A42C5D901330131013211F8014C50
:103F400001330131934203F8024CF7D1B9E70C6811
:103F50004033403143F8404C51F83C4C43F83C4C22
:103F600051F8384C43F8384C51F8344C43F8344C41
:103F700051F8304C43F8304C51F82C4C43F82C4C51
:103F800051F8284C43F8284C51F8244C43F8244C61
:103F900051F8204C43F8204C51F81C4C43F81C4C71
:103FA00051F8184C43F8184C51F8144C43F8144C81
:103FB00051F8104C43F8104C51F80C4C43F80C4C91
:103FC00051F8084C43F8084C51F8044C43F8044CA1
:103FD000D41A3F2CBBDC11E00C681033103143F8CD
:103FE000104C51F80C4C43F80C4C51F8084C43F869
:103FF000084C51F8044C43F8044CD41A0F2CEBDC59
:10400000032C96DD1C1D0D1D55F8047C161B234644
:10401000294604340435032E44F8087CF4DC88E790
:104020008842F0B411D98C18A0420ED28518531EC4
:104030004AB121462A4611F8014D013BB3F1FF3F39
:1040400002F8014DF7D1F0BC70470F2A47D941EA79
:1040500000039B0745D10C460346154626681033DE
:104060001034103D0F2D43F8106C54F80C6C43F8CD
:104070000C6C54F8086C43F8086C54F8046C43F862
:10408000046CEBD8A2F1100502F00F0425F00F0527
:104090001035032C00EB0503294424D9A4F1040CAA
:1040A0001D460C464FEA9C0C01EB8C07043754F874
:1040B000046BBC4245F8046BF9D10CF1010402F029
:1040C0000302A40009191B19002ABCD001399A184F
:1040D00011F8014F03F8014B9342F9D1B3E70346BE
:1040E000F2E70346F2E72246EEE700BF704700BF63
:1040F000704700BF2DE9F04F0C4683B0814617464C
:10410000002900F01C8107F10B05FFF7EFFF54F8C1
:10411000042C162DA4F1080A22F0030675D81021EC
:1041200000230D46BD4238BF43F00103002B40F091
:104130000C818E426EDA4EF2047B0AEB0600C1F669
:10414000FF7BDBF808E0864500F00481D0F804C06E
:104150002CF001088044D8F8048018F0010F1CBF2F
:104160009C4660466FD0D30700F1C38054F8083CEA
:10417000C3EB0A035A6822F0030292190192002845
:104180006CD0704500F037810CEB0208884565DB88
:10419000C1681F468068321F242A8860C16057F8B2
:1041A000080FD968C160886000F27881132A9CBF2B
:1041B000394620461FD921681B2A98BF04F1080000
:1041C00099606168D96098BF03F1100113D9A168A3
:1041D000242A14BF04F1100004F118001961E168E9
:1041E000596111BF03F11801226903F120019A619D
:1041F00004BF6269DA6102683C460A609A46426816
:104200004A6082688A605A6805E025F007052946F9
:10421000EB0F87E7B046C5EB08030F2B55D80AEB29
:10422000080302F0010242EA0802CAF804205A68B0
:1042300042F001025A6048462746FFF759FF3846C8
:1042400003B0BDE8F08F2CF0030C0CEB060888459A
:1042500089DBC3688168CB609960DCE7019A8A4298
:1042600047DB1F46D968321F57F8080F242AC16060
:10427000886000F2B180132A9CBF394620461FD9BE
:1042800021681B2A98BF04F1080099606168D96011
:1042900098BF03F1100113D9A168242A14BF04F1B7
:1042A000100004F118001961E168596111BF03F1B0
:1042B0001801226903F120019A6104BF6269DA6181
:1042C00002683C46DDF8048097E70AEB050102F03E
:1042D0000102CE18154343F00103CAF804504B60A5
:1042E00048467368083143F00103736002F0C6FD6D
:1042F000A1E739464846FFF70DFB0746D8B154F809
:10430000042CA0F1080122F001035344994200F06B
:10431000BF80321F242A6AD8132A9CBF0346224634
:1043200039D8116819605168596092689A60484696
:10433000214602F0A3FD4846FFF7DAFE7FE711466B
:1043400003B0BDE8F04FFFF7E5BA0C230027C9F82A
:10435000003074E7DEF8043005F1100023F0030CA0
:104360000CEB06038342B8BF7046FFF6FCAE0AEBC7
:1043700005025B1B43F0010348465360274654F88F
:10438000043CCBF8082003F001031D4344F8045C0F
:10439000FFF7AEFE53E723681B2A98BF04F108021B
:1043A00003606368436098BF00F10803B9D9A3684C
:1043B000242A14BF04F1100204F118028360E36898
:1043C000C36011BF00F11003216900F118030161FE
:1043D00004BF61694161A4E7214638460093FFF7B5
:1043E0001FFE9DE808013C469A465A6813E721469D
:1043F000FFF716FE9BE7019805F110020CEB000891
:104400009045FFF62BAF1F46D968321F57F8080FAB
:10441000242AC16088604BD8132A9CBF3A462146A3
:104420001FD921681B2A98BF03F1100299606168A7
:10443000D96098BF04F1080113D9A168242A14BFD8
:1044400003F1180203F120021961E168596111BFFB
:1044500004F11001206904F11801986104BF60693A
:10446000D8610868106048685060896891605A197E
:10447000C5EB080141F00101484651605968CBF88D
:10448000082001F001010D435D60FFF731FED6E623
:1044900050F8043C23F00308B044BCE621463846FB
:1044A0000093FFF7BDFD009B3C469A465A68B2E672
:1044B000384621460093FFF7B3FD009BD7E700BFC6
:1044C00038B54EF68074C1F6FF74054608460023E1
:1044D0002360FCF75EF9431C00D038BD2368002B35
:1044E000FBD02B6038BD00BF0CB4F0B59DB022AC42
:1044F0000E4602A96FF0004554F8042B4FF40277E2
:1045000004952346079502964FF6FF75ADF8147093
:104510000696ADF81650019400F01EF9029B002299
:104520001A701DB0BDE8F04002B070470EB44EF2F4
:104530001063F0B59CB021ACC1F6FF73064602A92A
:1045400054F8042B6FF0004518684FF402772346A7
:10455000049507954FF6FF750296ADF81470069610
:10456000ADF81650019400F0F7F8029B00221A7083
:104570001CB0BDE8F04003B0704700BF80EA010204
:1045800012F0030F40F03A8010F0030220F0030015
:1045900021F0030150F804CB08BF51F8043B0DD0C3
:1045A00082F003024FEAC2026FF07F4323FA02F265
:1045B00051F8043B4CEA020C43EA0203ACF101322D
:1045C0009C4501BF22EA0C0212F0803F50F804CB58
:1045D00051F8043BF2D04FEA0C604FEA1C2C012842
:1045E00028BFB0EB036F08BF1B0AF4D003F0FF0332
:1045F0004FEA1060A0EB0300704700BF10F0030FFC
:104600000AD010F8012B11F8013B012A28BF9A4269
:10461000F4D0A2EB030070474DF8045D4DF8044D53
:104620004FF0010242EA022242EA024201F0030C88
:1046300021F0030150F8044B51F8045BBCF1020F68
:1046400026D04BD824F07F4CBCEB152FA4EB0203F3
:1046500023EA04030DD113EAC21308BF51F8045B27
:104660000AD18CEA040CBCEB056F0CD150F8044B5A
:10467000E8E74FEA15255CE033F07F4352D10D782F
:104680004FEA146C55E04FEA146C05F0FF0550E05A
:104690004FEA044CA4EB02034FEA1C4C23EA040348
:1046A000BCEB154F17D113EAC21308BF51F8045BD6
:1046B00007D18CEA040CBCEB054F08D150F8044B31
:1046C000E6E71B042ED10D884FEA144C31E04FEA87
:1046D00005454FEA144C4FEA15452AE004F0FF0C5B
:1046E000BCEB156FA4EB020323EA04030DD113EA1C
:1046F000C21308BF51F8045B0AD18CEA040CBCEB6E
:10470000052F0AD150F8044BE8E74FEA156510E091
:1047100014F0FF0F06D051F8045B4FEA142C25F07B
:104720007F4506E04FF000005DF8044B5DF8045B48
:1047300070470CF0FF0205F0FF00012828BF9042EF
:1047400004BF4FEA1C2C2D0AF3D0A2EB00005DF849
:10475000044B5DF8045B70472DE9F04FC9B0894602
:104760001446119300260F9002F08EFC0027CDE92D
:104770001E6700681C90FCF74DF8B9F80C3003F088
:1047800080031BB21D9023B1D9F81030002B01F02B
:10479000DD800DF1E00B49F28C35D84649F28836C0
:1047A00049F284370A9449F280340023C0F20005AC
:1047B000C0F20006C0F20007C0F2000412931A9380
:1047C00020930C931895199616971794CDF8ACB0C2
:1047D0002D932C93CDF824900A9D2B78252B18BF70
:1047E000002B00F0B9806A1C164601323378252B65
:1047F00018BF002BF8D10A9C371B10D02C9C0A98AC
:1048000001342D9D072C88E881003D442C94D8BFAD
:1048100008F108082D957EDC0C9CE4190C94337883
:10482000002B00F0D387751C777800234FF0FF39F9
:104830000D9320208DF88B302B2108932B460A9561
:104840000133A7F12002582A00F24882DFE812F073
:10485000EC0246024602DB024602460246024602DD
:1048600046024602E102860046025D008A004602D8
:10487000A900AF00AF00AF00AF00AF00AF00AF00C6
:10488000AF00AF004602460246024602460246021A
:104890004602460246024602C000840146028401E6
:1048A0004602460246024602BC0146024602C201D8
:1048B00046024602460246024602DF014602460220
:1048C000EC01460246024602460246024602460203
:1048D00046024602460271025802840184018401A4
:1048E0006B025802460246023C024602B5028502AD
:1048F0009A020B02460211024602C7024602460213
:10490000F5020D9E119276420D96089F47F004071E
:1049100008971F7894E70F982BAA099903F0FEF8DF
:1049200048B9D84678E70F982BAA099903F0F6F80A
:10493000002800F07083DDF82490B9F80C300C9C4E
:1049400003F040031BB2002B18BF4FF0FF340C9450
:104950000C9849B0BDE8F08F0A9E60E78DF88B1087
:104960001F786DE71C4614F8017B2A2F01F0668141
:10497000A7F13002092A84BF23464FF000093FF611
:1049800060AF4FF0000914F8017B09EB890902EBD5
:104990004909A7F13002092A2346F4D949EAE979FD
:1049A0004FE7089E46F0800608961F7848E71C46A9
:1049B0000022A7F1300614F8017B02EB8202A7F176
:1049C00030052346092D06EB4202F2D90D9238E755
:1049D000089C0A9344F010040894089DAD0640F129
:1049E0009481119EF31D23F0070303F10804119431
:1049F000D3E9002314461D46002A73F10006C0F2D5
:104A0000FF8554EA05004FF001030CBF002201228C
:104A1000B9F1000FA2BF089E26F080060896B9F1F2
:104A2000000F18BF42F00102002A00F05C83012B46
:104A300000F09F84022B00F07A840DF1DF00BC4669
:104A4000E108072604EA060241EA4571EE080C4631
:104A5000354603463032013854EA0507D2B21A709F
:104A6000EED1089C67461493E40700F1BD85C3EBC3
:104A70000B050E959DF88B300E9ECDF840904E455F
:104A8000B8BF4E464FF000090B96CDF86C902BB195
:104A9000DDF82C9009F10109CDF82C90089B13F05A
:104AA0000203139302D00B9C02340B94089D15F063
:104AB0008405159540F0D7810D9C0B9D661B002E3B
:104AC00040F3D181102E49F2603A2D9DC0F2000AC8
:104AD0002C9C28DD21974FF010095746B2460F9EB7
:104AE00004E0AAF1100ABAF1100F19DD01341035F3
:104AF000072C88E880022C9408F108082D95F0DD39
:104B0000304609992BAAD84603F008F800287FF40C
:104B100012AFAAF1100A2D9DBAF1100F2C9CE5DC02
:104B20005646BA46219F0134C8F800A0072CC8F8A1
:104B3000046035442C942D95D8BF08F1080840F343
:104B400093810F982BAA099902F0E8FF00287FF4BF
:104B5000F2AE2D9DD84687E1089C0A93210740F1CB
:104B60007C85119DE91D21F0070101F108061196D0
:104B70000E684D6830462946CDE91E01304629466B
:104B8000FEF7DAF90128304640F04B850022002379
:104B90002946FEF723FE002840F065879DF88B30FC
:104BA0000324169E0B940025089CDDF85C9010955C
:104BB00024F08004472FD8BF4E46032514960026C4
:104BC00008940E951B9662E7089F47F00807089720
:104BD0001F7835E6089C0A9344F010040894089D59
:104BE00015F0200300F0BF80119E0023F21D22F07B
:104BF000070202F108041194D2E9004554EA0506BF
:104C00000CBF0022012200218DF88B1000E7089CC8
:104C10000A9344F010040894089DAD0640F1E48026
:104C2000119E0123F21DE2E7089D49F29034C0F283
:104C300000040A93A9061A9440F10981119EF31DFC
:104C400023F0070303F108041194D3E90045089EFB
:104C5000F60700F1DB8354EA05004FF002030CBFB6
:104C600000220122CFE7089F47F0200708971F780E
:104C7000E6E5119E00248DF88B400A933668149661
:104C8000119E351D149E002E00F0DC86B9F1000F38
:104C90001498C0F2A88621464A4602F007FA002876
:104CA00000F04187149E1094801B0E90484540F3FD
:104CB000A285119529EAE974109D0B949DF88B301B
:104CC000CDF838901B95E2E61F781A466C2F00F05D
:104CD0008A85089E46F010060896B1E50A93002FD3
:104CE00000F07485012400232EAD0B948DF8B8706C
:104CF0000E948DF88B301495002510951B95CDE6FC
:104D0000089D0A93AD063FF56CAE089DEC0640F198
:104D1000AD84119E043656F8043C11961C461A4682
:104D2000DD172B4668E6089C44F0400408941F7881
:104D300086E50A934FF00109119B0022119C2EAECB
:104D4000CDF82C901B680434CDF8389011948DF870
:104D50008B2014968DF8B830CEE7089D0A9315F095
:104D600020037FF441AF089C14F0100200F08C8403
:104D7000119D2E1D11962A681446003218BF01227B
:104D8000002540E70A937827119B49F2A436089D35
:104D9000C0F200061C1D11941A6845F00205089522
:104DA000002530231446521B8DF88C3018BF012289
:104DB0008DF88D701A96022325E7089F0A93BA068C
:104DC00040F18084DDF844900C9A09F1040959F807
:104DD000043CD117CDF844901A605960FCE4089D5A
:104DE0000A93AD063FF51CAF089CE40640F18584AC
:104DF000119D2E1D11962A6801231446003218BFFA
:104E000001220025FFE6089F47F0010708971F7859
:104E100016E5119C119D24682A1D002C0D94FFF6A7
:104E200070AD1F7811920BE59DF88B20002A40F0A1
:104E3000F5838DF88B001F7802E5089D49F2A436B2
:104E4000C0F200060A93A9061A963FF5F7AE089D30
:104E5000EA0640F12B84119E0025043656F8043CE6
:104E600011961C46F3E62D9D9DF88B308BB12C9C42
:104E70000DF18B03C8F8003001230134C8F8043069
:104E8000072C1D442C94D8BF08F108082D9500F379
:104E9000E681139E86B12C9C23ABC8F80030022318
:104EA0000134C8F80430072C1D442C94D8BF08F1F5
:104EB00008082D9500F3DE81159B802B00F02781DB
:104EC000109C0E9BC3EB0409B9F1000F42DDB9F150
:104ED000100F2C9CD8BF984E27DD974E4FF0100A2C
:104EE000109737460F9E04E0A9F11009B9F1100F91
:104EF00019DD01341035072C88E880042C9408F162
:104F000008082D95F0DD304609992BAAD84602F005
:104F100005FE00287FF40FADA9F110092D9DB9F110
:104F2000100F2C9CE5DC3E46109F013488E84002BF
:104F3000072C4D442C94D8BF08F108082D9509DDA5
:104F40000F982BAA099902F0E9FD00287FF4F3AC31
:104F50002D9DD846089EF10562D42C9C0E9F0134ED
:104F6000149E072C3D4488E8C0002D952C9400F336
:104F7000678108F10808DDF8209019F0040F3FD090
:104F80000D9C0B9FE61B002E3ADD102E49F2603A75
:104F90002C9CC0F2000A20DD1027DDF83C9002E0D6
:104FA000103E102E19DD01341035072CC8F800A072
:104FB000C8F8047008F108082C942D95F0DD4846D7
:104FC00009992BAAD84602F0A9FD00287FF4B3ACBA
:104FD000103E2D9D102E2C9CE5DC0134C8F800A05D
:104FE000072CC8F8046035442C942D9508DD0F98E3
:104FF0002BAA099902F092FD00287FF49CAC2D9D0C
:105000000C9C0B9F0D9EB742ACBFE419A4190C94E5
:10501000002D7FF488AC0023D8462C93FFF7DCBB2F
:10502000652F40F3C380DDE91E0100220023FEF757
:10503000CBFB002800F029812C9C49F2C033C0F240
:105040000003C8F8003001340123072CC8F80430ED
:105050001D442C942D95D8BF08F1080800F3558302
:10506000249B129FBB4204DBDDF8209019F0010F56
:1050700081D02C9C1D9E01341C9F072C3544C8F800
:105080000460C8F80070D8BF08F108082D952C946A
:1050900000F34884129C671E002F7FF76CAF102F1F
:1050A0002C9C40F3C6814FF01009234EDDF83CA044
:1050B00003E0103F102F40F3BD8101341035072C61
:1050C00088E840022C9408F108082D95F1DD50463F
:1050D00009992BAAD84602F021FD00287FF42BACB9
:1050E0002D9D2C9CE5E7002B40F0B580089CE00747
:1050F0005CBF0E93CDF850B07FF5BCAC48AB30220E
:1051000003F8412DC3EB0B0514930E95B2E40D9CEF
:105110000B9EC6EB0409B9F1000F7FF7D1AEB9F1D0
:10512000100F2C9CD8BF044E29DD034E4FF0100AFF
:10513000139737460F9E06E070930000A9F11009FF
:10514000B9F1100F19DD01341035072C88E88004FF
:105150002C9408F108082D95F0DD304609992BAA0A
:10516000D84602F0DBFC00287FF4E5ABA9F110097A
:105170002D9DB9F1100F2C9CE5DC3E46139F0134A8
:1051800088E84002072C4D442C94D8BF08F1080849
:105190002D957FF795AE0F982BAA099902F0BEFCCA
:1051A00000287FF4C8AB2D9DD84689E6129C012CBF
:1051B0002C9C40F3CD810134149E01350123072C32
:1051C000C8F80430C8F80060D8BF08F108082D9569
:1051D0002C9400F3CF8101341D9E1C9F072C354475
:1051E000C8F80460C8F80070D8BF08F108082C940B
:1051F0002D9500F3CB81DDE91E0100220023FEF78F
:10520000E3FA002840F0C480129F0134149E7B1EF4
:10521000C8F80430721C072CC8F800201D442C94D8
:105220002D9500F3E78008F108080134209F072C32
:1052300027AB3D4488E888002D952C947FF799AEE4
:105240000F982BAA099902F069FC00287FF473AB30
:10525000D8462D9D8FE60E92CDF850B00AE40F98F7
:105260002BAA099902F05AFC00287FF464AB2D9D0B
:10527000D8460EE60F982BAA099902F04FFC002899
:105280007FF459AB2D9DD84616E6249F002F40F39E
:105290004782129EDDF86C90149C4E45A8BF4E4686
:1052A000129F002E04EB070A0FDD2C9CAD191498F9
:1052B0000134C8F80460072CC8F80000D8BF08F112
:1052C00008082D952C9400F39C831B9C26EAE67617
:1052D000A71B002F40F3D380102F2C9CD8BFB14EBA
:1052E00040F3B880AF4E4FF01009CDF838A0BA4661
:1052F00037460F9E05E0AAF1100ABAF1100F40F3ED
:10530000A58001341035072C88E880022C9408F120
:1053100008082D95EFDD304609992BAAD84602F0F2
:10532000FDFB00287FF407AB2D9D2C9CE3E71A9E24
:105330000DF1DF01C246CDF82C904FF00F08230984
:1053400004EA080243EA0573B2184FEA151C1C462A
:10535000654612780846013954EA05090270ECD115
:10536000C0EB0B031490D046DDF82C900E93FFF7A2
:1053700081BB002D08BF0A2C80F0168148AB303469
:1053800003F8414DC3EB0B0514930E95FFF772BB69
:10539000129E771E002F7FF748AF102F814EC4BF9B
:1053A0004FF01009DDF83CA003DC1AE0103F102F8D
:1053B00017DD01341035072C88E840022C9408F1E1
:1053C00008082D95F2DD504609992BAAD84602F01F
:1053D000A5FB00287FF4AFAA103F2D9D102F2C9C19
:1053E000E7DC013488E8C000072C3D442C942D955F
:1053F0007FF719AF0F982BAA099902F08FFB0028AD
:105400007FF499AAD8462D9D2C9C0EE700220223FA
:1054100054EA05013FF4F7AB089E30238DF88D70F8
:1054200001228DF88C3046F0020602230896FFF721
:10543000EABB5C4E0134C8F80060072CC8F8047061
:105440003D442C942D957FF794ADF9E63E465746A2
:10545000DDF838A0013488E8C000072C3D442C94C6
:10546000D8BF08F108082D9509DD0F982BAA0999D6
:1054700002F054FB00287FF45EAA2D9DD846249BA1
:10548000129C149EDDF86C90A34206EB090742DBE8
:10549000089EF2073FD4129CC7EB0A06E31AB342F8
:1054A000B8BF1E46002E0EDD2C9CAD19C8F800704A
:1054B0000134C8F80460072C2D952C94D8BF08F14E
:1054C000080800F3A98226EAE6769F1B002F7FF7E3
:1054D00052AD102F2C9CACDD4FF01009314EDDF891
:1054E0003CA002E0103F102FA4DD01341035072C42
:1054F00088E840022C9408F108082D95F2DD50460A
:1055000009992BAAD84602F009FB00287FF413AAB8
:105510002D9D2C9CE6E71D9E2C9CAD191C9E0134F4
:10552000072CC8F800601D9EC8F80460D8BF08F1B9
:1055300008082D952C94AEDD0F982BAA099902F03E
:10554000EDFA00287FF4F7A9249BD8462D9DA2E709
:10555000089EF3073FF52FAE0134149E0135012359
:10556000072CC8F80430C8F800602D952C947FF7FC
:105570005AAE3FE70F982BAA099902F0CFFA0028FC
:105580007FF4D9A92D9DD8462C9C24E60F982BAAF0
:10559000099902F0C3FA00287FF4CDA92D9DD846C1
:1055A0002C9C28E6709300000DF1DF06204629466A
:1055B0000A22002303F0FEF9B246204629460023C2
:1055C000013E02F130040A228AF8004003F0F2F9A9
:1055D00004460D4654EA0500E8D1CAEB0B03CDF8AA
:1055E00050A00E93FFF746BA302A00F02382C0EB9A
:1055F0000B04302214900E9403F8012CFFF73ABAF2
:10560000644265EB45052D2354EA05018DF88B3086
:105610000CBF002201220123FFF7FAB91F78FFF720
:105620000FB92946FDF788FC002840F0FF80089E4E
:105630004FF00309189C199D26F08006CDF82C9098
:10564000472FD8BF2C461090149408969DF88B30A5
:10565000CDF838901B90FFF71ABA119CE11D21F08C
:10566000070101F108051195FFF782BA089C600651
:1056700040F14E81119E043636F9044C11962246B3
:10568000E5172B46FFF7B8B9089C14F0400300F06B
:10569000C280119E134634880025043654EA050062
:1056A00011960CBF00220122FFF7ADBA089C6306D9
:1056B00040F14481119E0025043636F8044C1196C1
:1056C000FFF7C5BA089CE3060ED4089F7E060BD5EB
:1056D000DDF844900C9C09F1040959F8043CCDF81C
:1056E00044901C80FFF778B8119D0C9E043555F846
:1056F000043C11951E60FFF76FB8089C600640F1EE
:105700008480119E01233488C6E70F982BAA09993B
:1057100002F004FA00287FF40EA92D9DD8469FE4DC
:105720002C9C49F2C033C0F20003C8F800300134A9
:105730000123072CC8F804301D442C942D95D8BFA4
:1057400008F1080800F312813FB9129E2EB9DDF866
:10575000209019F0010F3FF40EAC1D9E2C9CAD194A
:105760001C9E0134072CC8F800601D9EC8F8046018
:10577000D8BF08F108082D952C9400F322817F42B0
:10578000002F40F31881102FAD4EC4BF4FF0100909
:10579000DDF83CA004DCF8E0103F102F40F3F5806A
:1057A00001341035072C88E840022C9408F10808D1
:1057B0002D95F1DD504609992BAAD84602F0AEF995
:1057C00000287FF4B8A82D9D2C9CE5E72D9BDDF8E3
:1057D0002490002B3FF4B1A80F9849462BAA02F061
:1057E0009DF9FFF7AAB8089D0133577845F02005C9
:1057F0000895FFF725B80E9E9DF88B3026EAE676D1
:1058000011950B961B94FFF742B9119C251D11951C
:105810002268FFF7F1BA119C251D119522681446E4
:10582000003218BF01220025FFF7EDB9B9F1FF3FA3
:1058300027F0200A08BF4FF0060907D0BAF1470F3A
:1058400004D1B9F1000F08BF4FF00109089C002DE9
:1058500044F480741394C0F2C18000241094BAF10F
:10586000460251425141002940F00281BAF1450FF0
:1058700040F0728109F10104022101943246009145
:105880002B4624A90F98029125A9039126A90491DA
:1058900000F00AFB04191490304600220023294628
:1058A000FDF792FF50B9269B9C4298BF1C4605D934
:1058B000302203F8012BA3422693FAD1149DBAF1AA
:1058C000470FC5EB0404129400F00081652F40F3EC
:1058D000DD81662F249A00F07081129CA242C0F2F2
:1058E0002E81089DE90700F17F81672722EAE27691
:1058F0000E920B961B92109C002C00F0DE80139DE4
:105900002D2300268DF88B3010960895FFF7C0B830
:10591000119C251D119523681C461A46DD172B4640
:10592000FFF76AB80F982BAA099902F0F7F8002838
:105930007FF401A82D9DD846FFF7ACBB119C251D17
:105940001195236800251C46FFF781B90F98402167
:10595000FDF7E0FFC9F80000C9F81000002800F0CA
:1059600088814023C9F81430FEF713BF0F982BAA83
:10597000099902F0D3F800287EF4DDAF249FD846C1
:105980002D9D002F7FF4E9AEDFE6013488E8C000EA
:10599000072C3D442C94D8BF08F108082D950ADD4A
:1059A0000F982BAA099902F0B9F800287EF4C3AF2A
:1059B0002D9DD8462C9C149E0134129FC8F800607F
:1059C0003BE50F982BAA099902F0A8F800287EF46D
:1059D000B2AF249FD8462D9D2C9CD0E62D2405F1F6
:1059E000004510943BE71094FAF714FF9DF88B30B4
:1059F00011951B9420EAE0790E90CDF82C90FFF7DA
:105A000046B80F982BAA099902F088F800287EF46E
:105A100092AF2D9DD84658E40F982BAA099902F011
:105A20007DF800287EF487AF249BD846129F2D9DD9
:105A3000FB1A48E5149EC6EB0B060E96FFF71AB844
:105A400070930000B9F1060F34BF4B46062349F2AC
:105A5000B83423EAE376C0F200040E930B96119556
:105A60001494FFF749B92D238DF88B30FFF798B8C0
:105A700003200090324624A82B46029026AC25A88D
:105A8000CDF80490039004940F98079100F00CFA5D
:105A9000BAF1470F0799149002D1089CE30712D579
:105AA000149800EB090400293FF4F6AE0378302B7C
:105AB00000F0A280249BE418EEE6139E9DF88B3044
:105AC0000896FEF7E4BF269B1B1A1293249BDD1C4D
:105AD0001A4602DB9945BFF600AF023F013B8DF845
